{
  "_format": "hh-sol-artifact-1",
  "contractName": "Create",
  "sourceName": "contracts/Votingcontract.sol",
  "abi": [
    {
      "inputs": [],
      "stateMutability": "nonpayable",
      "type": "constructor"
    },
    {
      "anonymous": false,
      "inputs": [
        {
          "indexed": true,
          "internalType": "uint256",
          "name": "candidateId",
          "type": "uint256"
        },
        {
          "indexed": false,
          "internalType": "uint256",
          "name": "age",
          "type": "uint256"
        },
        {
          "indexed": false,
          "internalType": "string",
          "name": "name",
          "type": "string"
        },
        {
          "indexed": false,
          "internalType": "string",
          "name": "image",
          "type": "string"
        },
        {
          "indexed": false,
          "internalType": "uint256",
          "name": "voteCount",
          "type": "uint256"
        },
        {
          "indexed": false,
          "internalType": "address",
          "name": "_address",
          "type": "address"
        },
        {
          "indexed": false,
          "internalType": "string",
          "name": "ipfs",
          "type": "string"
        }
      ],
      "name": "CandidateCreate",
      "type": "event"
    },
    {
      "anonymous": false,
      "inputs": [
        {
          "indexed": true,
          "internalType": "uint256",
          "name": "voter_voterId",
          "type": "uint256"
        },
        {
          "indexed": false,
          "internalType": "string",
          "name": "voter_name",
          "type": "string"
        },
        {
          "indexed": false,
          "internalType": "string",
          "name": "voter_image",
          "type": "string"
        },
        {
          "indexed": false,
          "internalType": "address",
          "name": "voter_address",
          "type": "address"
        },
        {
          "indexed": false,
          "internalType": "uint256",
          "name": "voter_allowed",
          "type": "uint256"
        },
        {
          "indexed": false,
          "internalType": "bool",
          "name": "voter_voted",
          "type": "bool"
        },
        {
          "indexed": false,
          "internalType": "uint256",
          "name": "voter_vote",
          "type": "uint256"
        },
        {
          "indexed": false,
          "internalType": "string",
          "name": "voter_ipfs",
          "type": "string"
        }
      ],
      "name": "VoterCreated",
      "type": "event"
    },
    {
      "inputs": [],
      "name": "_candidateId",
      "outputs": [
        {
          "internalType": "uint256",
          "name": "_value",
          "type": "uint256"
        }
      ],
      "stateMutability": "view",
      "type": "function"
    },
    {
      "inputs": [],
      "name": "_voterId",
      "outputs": [
        {
          "internalType": "uint256",
          "name": "_value",
          "type": "uint256"
        }
      ],
      "stateMutability": "view",
      "type": "function"
    },
    {
      "inputs": [
        {
          "internalType": "uint256",
          "name": "",
          "type": "uint256"
        }
      ],
      "name": "candidateAddress",
      "outputs": [
        {
          "internalType": "address",
          "name": "",
          "type": "address"
        }
      ],
      "stateMutability": "view",
      "type": "function"
    },
    {
      "inputs": [
        {
          "internalType": "address",
          "name": "",
          "type": "address"
        }
      ],
      "name": "candidates",
      "outputs": [
        {
          "internalType": "uint256",
          "name": "candidateId",
          "type": "uint256"
        },
        {
          "internalType": "uint256",
          "name": "age",
          "type": "uint256"
        },
        {
          "internalType": "string",
          "name": "name",
          "type": "string"
        },
        {
          "internalType": "string",
          "name": "image",
          "type": "string"
        },
        {
          "internalType": "uint256",
          "name": "voteCount",
          "type": "uint256"
        },
        {
          "internalType": "address",
          "name": "_address",
          "type": "address"
        },
        {
          "internalType": "string",
          "name": "ipfs",
          "type": "string"
        }
      ],
      "stateMutability": "view",
      "type": "function"
    },
    {
      "inputs": [],
      "name": "getCandidate",
      "outputs": [
        {
          "internalType": "address[]",
          "name": "",
          "type": "address[]"
        }
      ],
      "stateMutability": "view",
      "type": "function"
    },
    {
      "inputs": [],
      "name": "getCandidateLength",
      "outputs": [
        {
          "internalType": "uint256",
          "name": "",
          "type": "uint256"
        }
      ],
      "stateMutability": "view",
      "type": "function"
    },
    {
      "inputs": [
        {
          "internalType": "address",
          "name": "_address",
          "type": "address"
        }
      ],
      "name": "getCandidatedata",
      "outputs": [
        {
          "internalType": "uint256",
          "name": "",
          "type": "uint256"
        },
        {
          "internalType": "string",
          "name": "",
          "type": "string"
        },
        {
          "internalType": "uint256",
          "name": "",
          "type": "uint256"
        },
        {
          "internalType": "string",
          "name": "",
          "type": "string"
        },
        {
          "internalType": "uint256",
          "name": "",
          "type": "uint256"
        },
        {
          "internalType": "string",
          "name": "",
          "type": "string"
        },
        {
          "internalType": "address",
          "name": "",
          "type": "address"
        }
      ],
      "stateMutability": "view",
      "type": "function"
    },
    {
      "inputs": [],
      "name": "getVotedVoterList",
      "outputs": [
        {
          "internalType": "address[]",
          "name": "",
          "type": "address[]"
        }
      ],
      "stateMutability": "view",
      "type": "function"
    },
    {
      "inputs": [],
      "name": "getVoterList",
      "outputs": [
        {
          "internalType": "address[]",
          "name": "",
          "type": "address[]"
        }
      ],
      "stateMutability": "view",
      "type": "function"
    },
    {
      "inputs": [
        {
          "internalType": "address",
          "name": "_address",
          "type": "address"
        }
      ],
      "name": "getVoterdata",
      "outputs": [
        {
          "internalType": "uint256",
          "name": "",
          "type": "uint256"
        },
        {
          "internalType": "string",
          "name": "",
          "type": "string"
        },
        {
          "internalType": "string",
          "name": "",
          "type": "string"
        },
        {
          "internalType": "address",
          "name": "",
          "type": "address"
        },
        {
          "internalType": "string",
          "name": "",
          "type": "string"
        },
        {
          "internalType": "uint256",
          "name": "",
          "type": "uint256"
        },
        {
          "internalType": "bool",
          "name": "",
          "type": "bool"
        }
      ],
      "stateMutability": "view",
      "type": "function"
    },
    {
      "inputs": [],
      "name": "getVoterlength",
      "outputs": [
        {
          "internalType": "uint256",
          "name": "",
          "type": "uint256"
        }
      ],
      "stateMutability": "view",
      "type": "function"
    },
    {
      "inputs": [
        {
          "internalType": "address",
          "name": "_address",
          "type": "address"
        },
        {
          "internalType": "uint256",
          "name": "_age",
          "type": "uint256"
        },
        {
          "internalType": "string",
          "name": "_name",
          "type": "string"
        },
        {
          "internalType": "string",
          "name": "_image",
          "type": "string"
        },
        {
          "internalType": "string",
          "name": "_ipfs",
          "type": "string"
        }
      ],
      "name": "setCandidate",
      "outputs": [],
      "stateMutability": "nonpayable",
      "type": "function"
    },
    {
      "inputs": [
        {
          "internalType": "address",
          "name": "_candidateAddress",
          "type": "address"
        },
        {
          "internalType": "uint256",
          "name": "_candidateVoteId",
          "type": "uint256"
        }
      ],
      "name": "vote",
      "outputs": [],
      "stateMutability": "nonpayable",
      "type": "function"
    },
    {
      "inputs": [
        {
          "internalType": "uint256",
          "name": "",
          "type": "uint256"
        }
      ],
      "name": "votedVoters",
      "outputs": [
        {
          "internalType": "address",
          "name": "",
          "type": "address"
        }
      ],
      "stateMutability": "view",
      "type": "function"
    },
    {
      "inputs": [
        {
          "internalType": "address",
          "name": "_address",
          "type": "address"
        },
        {
          "internalType": "string",
          "name": "_name",
          "type": "string"
        },
        {
          "internalType": "string",
          "name": "_image",
          "type": "string"
        },
        {
          "internalType": "string",
          "name": "_ipfs",
          "type": "string"
        }
      ],
      "name": "voterRight",
      "outputs": [],
      "stateMutability": "nonpayable",
      "type": "function"
    },
    {
      "inputs": [
        {
          "internalType": "address",
          "name": "",
          "type": "address"
        }
      ],
      "name": "voters",
      "outputs": [
        {
          "internalType": "uint256",
          "name": "voter_voterId",
          "type": "uint256"
        },
        {
          "internalType": "string",
          "name": "voter_name",
          "type": "string"
        },
        {
          "internalType": "string",
          "name": "voter_image",
          "type": "string"
        },
        {
          "internalType": "address",
          "name": "voter_address",
          "type": "address"
        },
        {
          "internalType": "uint256",
          "name": "voter_allowed",
          "type": "uint256"
        },
        {
          "internalType": "bool",
          "name": "voter_voted",
          "type": "bool"
        },
        {
          "internalType": "uint256",
          "name": "voter_vote",
          "type": "uint256"
        },
        {
          "internalType": "string",
          "name": "voter_ipfs",
          "type": "string"
        }
      ],
      "stateMutability": "view",
      "type": "function"
    },
    {
      "inputs": [
        {
          "internalType": "uint256",
          "name": "",
          "type": "uint256"
        }
      ],
      "name": "votersAddress",
      "outputs": [
        {
          "internalType": "address",
          "name": "",
          "type": "address"
        }
      ],
      "stateMutability": "view",
      "type": "function"
    },
    {
      "inputs": [],
      "name": "votingOrganizer",
      "outputs": [
        {
          "internalType": "address",
          "name": "",
          "type": "address"
        }
      ],
      "stateMutability": "view",
      "type": "function"
    }
  ],
  "bytecode": "0x608060405234801561001057600080fd5b5033600260006101000a81548173ffffffffffffffffffffffffffffffffffffffff021916908373ffffffffffffffffffffffffffffffffffffffff1602179055506126ee806100616000396000f3fe608060405234801561001057600080fd5b50600436106101165760003560e01c8063a3ec138d116100a2578063b9be315211610071578063b9be31521461031c578063c5036fd41461033a578063e7ccc5d114610370578063f4abecd21461038e578063f7522a83146103aa57610116565b8063a3ec138d14610273578063a7388967146102aa578063b28d92ae146102c8578063b63c82ca146102e657610116565b80635f74bbde116100e95780635f74bbde146101b557806370218b85146101d15780637831ffb3146101ef5780638ab66a901461021f5780638e9456851461025557610116565b80630361419e1461011b5780633a88251a1461013757806343242daa146101675780635cc48aa714610197575b600080fd5b61013560048036038101906101309190611a60565b6103c8565b005b610151600480360381019061014c9190611b51565b610640565b60405161015e9190611b8d565b60405180910390f35b610181600480360381019061017c9190611b51565b61067f565b60405161018e9190611b8d565b60405180910390f35b61019f6106be565b6040516101ac9190611b8d565b60405180910390f35b6101cf60048036038101906101ca9190611ba8565b6106e4565b005b6101d96108ab565b6040516101e69190611ca6565b60405180910390f35b61020960048036038101906102049190611b51565b610939565b6040516102169190611b8d565b60405180910390f35b61023960048036038101906102349190611cc8565b610978565b60405161024c9796959493929190611d83565b60405180910390f35b61025d610b72565b60405161026a9190611ca6565b60405180910390f35b61028d60048036038101906102889190611cc8565b610c00565b6040516102a1989796959493929190611e22565b60405180910390f35b6102b2610e0d565b6040516102bf9190611eb5565b60405180910390f35b6102d0610e19565b6040516102dd9190611ca6565b60405180910390f35b61030060048036038101906102fb9190611cc8565b610ea7565b6040516103139796959493929190611ed0565b60405180910390f35b610324611264565b6040516103319190611eb5565b60405180910390f35b610354600480360381019061034f9190611cc8565b611270565b6040516103679796959493929190611f54565b60405180910390f35b610378611638565b6040516103859190611eb5565b60405180910390f35b6103a860048036038101906103a39190611fd8565b611645565b005b6103b2611877565b6040516103bf9190611eb5565b60405180910390f35b3373ffffffffffffffffffffffffffffffffffffffff16600260009054906101000a900473ffffffffffffffffffffffffffffffffffffffff1673ffffffffffffffffffffffffffffffffffffffff1614610458576040517f08c379a000000000000000000000000000000000000000000000000000000000815260040161044f906120f3565b60405180910390fd5b6104626000611884565b600061046e600061189a565b90506000600760008773ffffffffffffffffffffffffffffffffffffffff1673ffffffffffffffffffffffffffffffffffffffff168152602001908152602001600020905060008160040154146104c457600080fd5b60018160040181905550848160010190816104df919061231f565b50838160020190816104f1919061231f565b50858160030160006101000a81548173ffffffffffffffffffffffffffffffffffffffff021916908373ffffffffffffffffffffffffffffffffffffffff1602179055508181600001819055506103e8816006018190555060008160050160006101000a81548160ff02191690831515021790555082816007019081610577919061231f565b506006869080600181540180825580915050600190039060005260206000200160009091909190916101000a81548173ffffffffffffffffffffffffffffffffffffffff021916908373ffffffffffffffffffffffffffffffffffffffff160217905550817ff5f39971dd62d9929e3a9feaa6bb77fe7c7da0001babff8a65a7e51ad0201c1986868985600401548660050160009054906101000a900460ff1687600601548a60405161063097969594939291906123f1565b60405180910390a2505050505050565b6003818154811061065057600080fd5b906000526020600020016000915054906101000a900473ffffffffffffffffffffffffffffffffffffffff1681565b6006818154811061068f57600080fd5b906000526020600020016000915054906101000a900473ffffffffffffffffffffffffffffffffffffffff1681565b600260009054906101000a900473ffffffffffffffffffffffffffffffffffffffff1681565b6000600760003373ffffffffffffffffffffffffffffffffffffffff1673ffffffffffffffffffffffffffffffffffffffff16815260200190815260200160002090508060050160009054906101000a900460ff1615610779576040517f08c379a0000000000000000000000000000000000000000000000000000000008152600401610770906124c1565b60405180910390fd5b60008160040154036107c0576040517f08c379a00000000000000000000000000000000000000000000000000000000081526004016107b79061252d565b60405180910390fd5b60018160050160006101000a81548160ff0219169083151502179055508181600601819055506005339080600181540180825580915050600190039060005260206000200160009091909190916101000a81548173ffffffffffffffffffffffffffffffffffffffff021916908373ffffffffffffffffffffffffffffffffffffffff1602179055508060040154600460008573ffffffffffffffffffffffffffffffffffffffff1673ffffffffffffffffffffffffffffffffffffffff168152602001908152602001600020600401600082825461089f919061257c565b92505081905550505050565b6060600380548060200260200160405190810160405280929190818152602001828054801561092f57602002820191906000526020600020905b8160009054906101000a900473ffffffffffffffffffffffffffffffffffffffff1673ffffffffffffffffffffffffffffffffffffffff16815260200190600101908083116108e5575b5050505050905090565b6005818154811061094957600080fd5b906000526020600020016000915054906101000a900473ffffffffffffffffffffffffffffffffffffffff1681565b60046020528060005260406000206000915090508060000154908060010154908060020180546109a790612142565b80601f01602080910402602001604051908101604052809291908181526020018280546109d390612142565b8015610a205780601f106109f557610100808354040283529160200191610a20565b820191906000526020600020905b815481529060010190602001808311610a0357829003601f168201915b505050505090806003018054610a3590612142565b80601f0160208091040260200160405190810160405280929190818152602001828054610a6190612142565b8015610aae5780601f10610a8357610100808354040283529160200191610aae565b820191906000526020600020905b815481529060010190602001808311610a9157829003601f168201915b5050505050908060040154908060050160009054906101000a900473ffffffffffffffffffffffffffffffffffffffff1690806006018054610aef90612142565b80601f0160208091040260200160405190810160405280929190818152602001828054610b1b90612142565b8015610b685780601f10610b3d57610100808354040283529160200191610b68565b820191906000526020600020905b815481529060010190602001808311610b4b57829003601f168201915b5050505050905087565b60606005805480602002602001604051908101604052809291908181526020018280548015610bf657602002820191906000526020600020905b8160009054906101000a900473ffffffffffffffffffffffffffffffffffffffff1673ffffffffffffffffffffffffffffffffffffffff1681526020019060010190808311610bac575b5050505050905090565b6007602052806000526040600020600091509050806000015490806001018054610c2990612142565b80601f0160208091040260200160405190810160405280929190818152602001828054610c5590612142565b8015610ca25780601f10610c7757610100808354040283529160200191610ca2565b820191906000526020600020905b815481529060010190602001808311610c8557829003601f168201915b505050505090806002018054610cb790612142565b80601f0160208091040260200160405190810160405280929190818152602001828054610ce390612142565b8015610d305780601f10610d0557610100808354040283529160200191610d30565b820191906000526020600020905b815481529060010190602001808311610d1357829003601f168201915b5050505050908060030160009054906101000a900473ffffffffffffffffffffffffffffffffffffffff16908060040154908060050160009054906101000a900460ff1690806006015490806007018054610d8a90612142565b80601f0160208091040260200160405190810160405280929190818152602001828054610db690612142565b8015610e035780601f10610dd857610100808354040283529160200191610e03565b820191906000526020600020905b815481529060010190602001808311610de657829003601f168201915b5050505050905088565b60018060000154905081565b60606006805480602002602001604051908101604052809291908181526020018280548015610e9d57602002820191906000526020600020905b8160009054906101000a900473ffffffffffffffffffffffffffffffffffffffff1673ffffffffffffffffffffffffffffffffffffffff1681526020019060010190808311610e53575b5050505050905090565b6000606060006060600060606000600460008973ffffffffffffffffffffffffffffffffffffffff1673ffffffffffffffffffffffffffffffffffffffff16815260200190815260200160002060010154600460008a73ffffffffffffffffffffffffffffffffffffffff1673ffffffffffffffffffffffffffffffffffffffff168152602001908152602001600020600201600460008b73ffffffffffffffffffffffffffffffffffffffff1673ffffffffffffffffffffffffffffffffffffffff16815260200190815260200160002060000154600460008c73ffffffffffffffffffffffffffffffffffffffff1673ffffffffffffffffffffffffffffffffffffffff168152602001908152602001600020600301600460008d73ffffffffffffffffffffffffffffffffffffffff1673ffffffffffffffffffffffffffffffffffffffff16815260200190815260200160002060040154600460008e73ffffffffffffffffffffffffffffffffffffffff1673ffffffffffffffffffffffffffffffffffffffff168152602001908152602001600020600601600460008f73ffffffffffffffffffffffffffffffffffffffff1673ffffffffffffffffffffffffffffffffffffffff16815260200190815260200160002060050160009054906101000a900473ffffffffffffffffffffffffffffffffffffffff168580546110b390612142565b80601f01602080910402602001604051908101604052809291908181526020018280546110df90612142565b801561112c5780601f106111015761010080835404028352916020019161112c565b820191906000526020600020905b81548152906001019060200180831161110f57829003601f168201915b5050505050955083805461113f90612142565b80601f016020809104026020016040519081016040528092919081815260200182805461116b90612142565b80156111b85780601f1061118d576101008083540402835291602001916111b8565b820191906000526020600020905b81548152906001019060200180831161119b57829003601f168201915b505050505093508180546111cb90612142565b80601f01602080910402602001604051908101604052809291908181526020018280546111f790612142565b80156112445780601f1061121957610100808354040283529160200191611244565b820191906000526020600020905b81548152906001019060200180831161122757829003601f168201915b505050505091509650965096509650965096509650919395979092949650565b60008060000154905081565b600060608060006060600080600760008973ffffffffffffffffffffffffffffffffffffffff1673ffffffffffffffffffffffffffffffffffffffff16815260200190815260200160002060000154600760008a73ffffffffffffffffffffffffffffffffffffffff1673ffffffffffffffffffffffffffffffffffffffff168152602001908152602001600020600101600760008b73ffffffffffffffffffffffffffffffffffffffff1673ffffffffffffffffffffffffffffffffffffffff168152602001908152602001600020600201600760008c73ffffffffffffffffffffffffffffffffffffffff1673ffffffffffffffffffffffffffffffffffffffff16815260200190815260200160002060030160009054906101000a900473ffffffffffffffffffffffffffffffffffffffff16600760008d73ffffffffffffffffffffffffffffffffffffffff1673ffffffffffffffffffffffffffffffffffffffff168152602001908152602001600020600701600760008e73ffffffffffffffffffffffffffffffffffffffff1673ffffffffffffffffffffffffffffffffffffffff16815260200190815260200160002060040154600760008f73ffffffffffffffffffffffffffffffffffffffff1673ffffffffffffffffffffffffffffffffffffffff16815260200190815260200160002060050160009054906101000a900460ff1685805461148790612142565b80601f01602080910402602001604051908101604052809291908181526020018280546114b390612142565b80156115005780601f106114d557610100808354040283529160200191611500565b820191906000526020600020905b8154815290600101906020018083116114e357829003601f168201915b5050505050955084805461151390612142565b80601f016020809104026020016040519081016040528092919081815260200182805461153f90612142565b801561158c5780601f106115615761010080835404028352916020019161158c565b820191906000526020600020905b81548152906001019060200180831161156f57829003601f168201915b5050505050945082805461159f90612142565b80601f01602080910402602001604051908101604052809291908181526020018280546115cb90612142565b80156116185780601f106115ed57610100808354040283529160200191611618565b820191906000526020600020905b8154815290600101906020018083116115fb57829003601f168201915b505050505092509650965096509650965096509650919395979092949650565b6000600680549050905090565b3373ffffffffffffffffffffffffffffffffffffffff16600260009054906101000a900473ffffffffffffffffffffffffffffffffffffffff1673ffffffffffffffffffffffffffffffffffffffff16146116d5576040517f08c379a00000000000000000000000000000000000000000000000000000000081526004016116cc90612622565b60405180910390fd5b6116df6001611884565b60006116eb600161189a565b90506000600460008873ffffffffffffffffffffffffffffffffffffffff1673ffffffffffffffffffffffffffffffffffffffff16815260200190815260200160002090508581600101819055508481600201908161174a919061231f565b5081816000018190555083816003019081611765919061231f565b5060008160040181905550868160050160006101000a81548173ffffffffffffffffffffffffffffffffffffffff021916908373ffffffffffffffffffffffffffffffffffffffff160217905550828160060190816117c4919061231f565b506003879080600181540180825580915050600190039060005260206000200160009091909190916101000a81548173ffffffffffffffffffffffffffffffffffffffff021916908373ffffffffffffffffffffffffffffffffffffffff160217905550817fa0bb2859e614d6df5a180bd5c06e70c2f058288ebf559a5751e8865cda8654c987878785600401548c8960405161186696959493929190612642565b60405180910390a250505050505050565b6000600380549050905090565b6001816000016000828254019250508190555050565b600081600001549050919050565b6000604051905090565b600080fd5b600080fd5b600073ffffffffffffffffffffffffffffffffffffffff82169050919050565b60006118e7826118bc565b9050919050565b6118f7816118dc565b811461190257600080fd5b50565b600081359050611914816118ee565b92915050565b600080fd5b600080fd5b6000601f19601f8301169050919050565b7f4e487b7100000000000000000000000000000000000000000000000000000000600052604160045260246000fd5b61196d82611924565b810181811067ffffffffffffffff8211171561198c5761198b611935565b5b80604052505050565b600061199f6118a8565b90506119ab8282611964565b919050565b600067ffffffffffffffff8211156119cb576119ca611935565b5b6119d482611924565b9050602081019050919050565b82818337600083830152505050565b6000611a036119fe846119b0565b611995565b905082815260208101848484011115611a1f57611a1e61191f565b5b611a2a8482856119e1565b509392505050565b600082601f830112611a4757611a4661191a565b5b8135611a578482602086016119f0565b91505092915050565b60008060008060808587031215611a7a57611a796118b2565b5b6000611a8887828801611905565b945050602085013567ffffffffffffffff811115611aa957611aa86118b7565b5b611ab587828801611a32565b935050604085013567ffffffffffffffff811115611ad657611ad56118b7565b5b611ae287828801611a32565b925050606085013567ffffffffffffffff811115611b0357611b026118b7565b5b611b0f87828801611a32565b91505092959194509250565b6000819050919050565b611b2e81611b1b565b8114611b3957600080fd5b50565b600081359050611b4b81611b25565b92915050565b600060208284031215611b6757611b666118b2565b5b6000611b7584828501611b3c565b91505092915050565b611b87816118dc565b82525050565b6000602082019050611ba26000830184611b7e565b92915050565b60008060408385031215611bbf57611bbe6118b2565b5b6000611bcd85828601611905565b9250506020611bde85828601611b3c565b9150509250929050565b600081519050919050565b600082825260208201905092915050565b6000819050602082019050919050565b611c1d816118dc565b82525050565b6000611c2f8383611c14565b60208301905092915050565b6000602082019050919050565b6000611c5382611be8565b611c5d8185611bf3565b9350611c6883611c04565b8060005b83811015611c99578151611c808882611c23565b9750611c8b83611c3b565b925050600181019050611c6c565b5085935050505092915050565b60006020820190508181036000830152611cc08184611c48565b905092915050565b600060208284031215611cde57611cdd6118b2565b5b6000611cec84828501611905565b91505092915050565b611cfe81611b1b565b82525050565b600081519050919050565b600082825260208201905092915050565b60005b83811015611d3e578082015181840152602081019050611d23565b60008484015250505050565b6000611d5582611d04565b611d5f8185611d0f565b9350611d6f818560208601611d20565b611d7881611924565b840191505092915050565b600060e082019050611d98600083018a611cf5565b611da56020830189611cf5565b8181036040830152611db78188611d4a565b90508181036060830152611dcb8187611d4a565b9050611dda6080830186611cf5565b611de760a0830185611b7e565b81810360c0830152611df98184611d4a565b905098975050505050505050565b60008115159050919050565b611e1c81611e07565b82525050565b600061010082019050611e38600083018b611cf5565b8181036020830152611e4a818a611d4a565b90508181036040830152611e5e8189611d4a565b9050611e6d6060830188611b7e565b611e7a6080830187611cf5565b611e8760a0830186611e13565b611e9460c0830185611cf5565b81810360e0830152611ea68184611d4a565b90509998505050505050505050565b6000602082019050611eca6000830184611cf5565b92915050565b600060e082019050611ee5600083018a611cf5565b8181036020830152611ef78189611d4a565b9050611f066040830188611cf5565b8181036060830152611f188187611d4a565b9050611f276080830186611cf5565b81810360a0830152611f398185611d4a565b9050611f4860c0830184611b7e565b98975050505050505050565b600060e082019050611f69600083018a611cf5565b8181036020830152611f7b8189611d4a565b90508181036040830152611f8f8188611d4a565b9050611f9e6060830187611b7e565b8181036080830152611fb08186611d4a565b9050611fbf60a0830185611cf5565b611fcc60c0830184611e13565b98975050505050505050565b600080600080600060a08688031215611ff457611ff36118b2565b5b600061200288828901611905565b955050602061201388828901611b3c565b945050604086013567ffffffffffffffff811115612034576120336118b7565b5b61204088828901611a32565b935050606086013567ffffffffffffffff811115612061576120606118b7565b5b61206d88828901611a32565b925050608086013567ffffffffffffffff81111561208e5761208d6118b7565b5b61209a88828901611a32565b9150509295509295909350565b7f4f6e6c79206f7267616e697a65722063616e2063726561746520766f74657200600082015250565b60006120dd601f83611d0f565b91506120e8826120a7565b602082019050919050565b6000602082019050818103600083015261210c816120d0565b9050919050565b7f4e487b7100000000000000000000000000000000000000000000000000000000600052602260045260246000fd5b6000600282049050600182168061215a57607f821691505b60208210810361216d5761216c612113565b5b50919050565b60008190508160005260206000209050919050565b60006020601f8301049050919050565b600082821b905092915050565b6000600883026121d57fffffffffffffffffffffffffffffffffffffffffffffffffffffffffffffffff82612198565b6121df8683612198565b95508019841693508086168417925050509392505050565b6000819050919050565b600061221c61221761221284611b1b565b6121f7565b611b1b565b9050919050565b6000819050919050565b61223683612201565b61224a61224282612223565b8484546121a5565b825550505050565b600090565b61225f612252565b61226a81848461222d565b505050565b5b8181101561228e57612283600082612257565b600181019050612270565b5050565b601f8211156122d3576122a481612173565b6122ad84612188565b810160208510156122bc578190505b6122d06122c885612188565b83018261226f565b50505b505050565b600082821c905092915050565b60006122f6600019846008026122d8565b1980831691505092915050565b600061230f83836122e5565b9150826002028217905092915050565b61232882611d04565b67ffffffffffffffff81111561234157612340611935565b5b61234b8254612142565b612356828285612292565b600060209050601f8311600181146123895760008415612377578287015190505b6123818582612303565b8655506123e9565b601f19841661239786612173565b60005b828110156123bf5784890151825560018201915060208501945060208101905061239a565b868310156123dc57848901516123d8601f8916826122e5565b8355505b6001600288020188555050505b505050505050565b600060e082019050818103600083015261240b818a611d4a565b9050818103602083015261241f8189611d4a565b905061242e6040830188611b7e565b61243b6060830187611cf5565b6124486080830186611e13565b61245560a0830185611cf5565b81810360c08301526124678184611d4a565b905098975050505050505050565b7f596f75206861766520616c726561647920766f74656400000000000000000000600082015250565b60006124ab601683611d0f565b91506124b682612475565b602082019050919050565b600060208201905081810360008301526124da8161249e565b9050919050565b7f596f752068617665206e6f20726967687420746f20766f746500000000000000600082015250565b6000612517601983611d0f565b9150612522826124e1565b602082019050919050565b600060208201905081810360008301526125468161250a565b9050919050565b7f4e487b7100000000000000000000000000000000000000000000000000000000600052601160045260246000fd5b600061258782611b1b565b915061259283611b1b565b92508282019050808211156125aa576125a961254d565b5b92915050565b7f4f6e6c79206f7267616e697a65722063616e206372656174652063616e64696460008201527f6174652000000000000000000000000000000000000000000000000000000000602082015250565b600061260c602483611d0f565b9150612617826125b0565b604082019050919050565b6000602082019050818103600083015261263b816125ff565b9050919050565b600060c0820190506126576000830189611cf5565b81810360208301526126698188611d4a565b9050818103604083015261267d8187611d4a565b905061268c6060830186611cf5565b6126996080830185611b7e565b81810360a08301526126ab8184611d4a565b905097965050505050505056fea26469706673582212203d36f6c7f921289ac856edcb948dcf7c2914748ea3879b41bbd1d09d079662a164736f6c63430008120033",
  "linkReferences": {},
  "deployedLinkReferences": {}
}